:0C0000000C947B000C9400000C94000099
:10000C000C9400000C9400000C9400000C94000064
:10001C000C9400000C9400000C9400000C94C6008E
:10002C000C9400000C9400000C9400000C94000044
:10003C000C9400000C94AA000C9400000C9400008A
:10004C000C9400000C9400000C9400000C94000024
:10005C000C9400000C9400000C9400000C94000014
:10006C000C9400000C9400000C9400000C94000004
:10007C000C9400000C9400000C9400000C940000F4
:10008C001027E80364000A000100001000011000B2
:10009C000100000052696768743D202564004C65BE
:1000AC0066743D202564005357523D2043616C52C9
:1000BC000053574C3D2043616C4C000001002D4E09
:1000CC00414E00494E46000080C0010002009E00D7
:1000DC000A000005B3000A000A05BD00010049052D
:1000EC00C80002004D05D4000000F894EE27ECBBCC
:1000FC00F1E0F5BFE5BFE0936C008DE0A2E0BB271B
:10010C00ED938A95E9F780E090E1A0E0B1E0ED9302
:10011C000197E9F7E6EDF0E085919591009761F094
:10012C00A591B59105901590BF01F00105900D9228
:10013C000197E1F7FB01F0CFEFEFEDBFE0E1EEBF90
:10014C00C0E0D5E00C946506EA93EFB7EA9323FE82
:10015C000FC0EFEFE719E2BFE89423F821FC03C0CE
:10016C00D99ADA9804C021FE02C0D998DA9A07C04D
:10017C0023FC05C072BE689423F8D998DA9825C080
:10018C00EA93EFB7EA9324FE15C0EFEFE619E4BD4E
:10019C00E89424F822FC05C0D898E0916200E0684D
:1001AC0006C022FE06C0D89AE0916200EF77E09379
:1001BC0062000BC024FC09C064BC689424F8D89875
:1001CC00E0916200EF77E0936200E991EFBFE99173
:1001DC001895AA93E881E064E7B985E38A95F1F76D
:1001EC00369A349BFECF349AE4B1F5B132C0AA935F
:1001FC00A881A13021F4E0916200E46006C0E8819E
:10020C00E03029F4E0916200EB7FE093620021C0C2
:10021C00AA93A881A13021F4E0916200E26006C0AB
:10022C00E881E03029F4E0916200ED7FE093620018
:10023C0010C0AA93A881A13021F4E0916200E16082
:10024C0006C0E881E03029F4E0916200EE7FE09393
:10025C00620021960895AA93EB810E94530B22F819
:10026C00EA810E94530B21F86980788067C00E9454
:10027C006709E0932005F09321050E946E090E9406
:10028C00750938F4A4E0A5DF2E0F3F1F0E947B09EF
:10029C00F6CF0E9483090E948A0938F4A4E099DF02
:1002AC000E0F1F1F0E949009F6CF0E949809E09331
:1002BC002005F09321050E94A809E0EAF0E0FA93EA
:1002CC00EA930E94B4092CC00E946709E0931E05B2
:1002DC00F0931F050E946E090E94750938F4A3E083
:1002EC0078DF2E0F3F1F0E947B09F6CF0E948309F7
:1002FC000E948A0938F4A3E06CDF0E0F1F1F0E94C6
:10030C009009F6CF0E949809E0931E05F0931F0503
:10031C000E94A809EAEAF0E0FA93EA930E94B9096C
:10032C00662777270E944E0B84E00E94710828965E
:10033C00A6E2B5E00E940D090E94610B2496089577
:10034C00E0E0F0E00E94BE096F01E0931A05F09323
:10035C001B05E0E0F0E00E94C3090E94C809E0938D
:10036C001C05F0931D050E946E090E94750998F4F6
:10037C00A3E02FDF0E94CD09EA0FFB1F0E94BE09EC
:10038C00A4E027DF0E94D209EA0FFB1F0E94C309D9
:10039C000E947B09EACF0E9483090E948A0988F493
:1003AC00A3E017DFCE0EDF1EA4E013DFA09114052F
:1003BC00B0911505EA0FFB1F0E94C8090E94900915
:1003CC00ECCF18980E94CD090E94D7090E94BE0953
:1003DC00D6010E94D7096F010E94D2090E94D70949
:1003EC000E94C309A0911405B09115050E94D7096C
:1003FC000E94C8090E94CD09F601EA1BFB0BE09391
:10040C001A05F0931B050E94D209E0911405F09196
:10041C001505EA1BFB0BE0931C05F0931D050895D5
:10042C000E94DC090E94EB0909F082C00E94F309CA
:10043C0031F00E94FB09EAEFEA93A2E377C00E9435
:10044C00000A31F00E94FB09EFEFEA93AAEA6EC0B2
:10045C000E94080A31F00E94FB09E8ECEA93AFEF26
:10046C0065C00E94100A31F00E94FB09ECE8EA9387
:10047C00AFEF5CC00E94180A31F00E94FB09E0E566
:10048C00EA93AFEF53C0E0916300E47031F00E9447
:10049C00FB09E8E2EA93AFEF49C00E94200A31F071
:1004AC000E94280AE0E0EA93AFEF40C00E942C0AB9
:1004BC0031F00E94280AECE3EA93AAEF37C00E94BD
:1004CC00340A31F00E94280AE8E7EA93AFEF2EC015
:1004DC000E943C0A31F00E94280AECE8EA93ACED49
:1004EC0025C00E94440A31F00E94280AECE8EA93E5
:1004FC00A4EB1CC00E944C0A31F00E94280AECE8C4
:10050C00EA93A0EA13C00E94540A21F00E94280A20
:10051C00E0EA0AC00E94540A19F00E944C0A09F43D
:10052C0006C00E94280AECE8EA93ACE894DE7ACF85
:10053C0083C00E94DC090E94F30909F07DC00E946F
:10054C00EB0931F00E945C0AE2E3EA93AAEF72C075
:10055C000E94610A31F00E945C0AEAEAEA93AFEF6A
:10056C0069C00E94690A31F00E945C0AEFEFEA93BD
:10057C00A8EC60C00E94710A21F00E945C0AEFEFA7
:10058C0057C00E94790A31F00E945C0AEFEFEA939F
:10059C00A0E550C00E94810A31F00E945C0AEFEF86
:1005AC00EA93A8E247C00E94890A31F00E94280A07
:1005BC00EFEFEA93A0E03EC00E94910A31F00E9456
:1005CC00280AEAEFEA93ACE335C0E0916300E170EE
:1005DC0031F00E94280AEFEFEA93A8E72BC0E091D4
:1005EC006300E27021F00E94280AECED21C00E9409
:1005FC00990A21F00E94280AE4EB1AC00E94540ABE
:10060C0021F00E94280AE0EA13C00E944C0A31F043
:10061C000E94280AECE8EA93A0EA0CC00E94540A53
:10062C0019F00E944C0A09F406C00E94280AECE852
:10063C00EA93ACE810DE7FCFA0E0FBDD089580DE0E
:10064C00059B63C0059B61C00E94B9090E94A10A69
:10065C0011F4E6DE5AC00E94B90931960E94A10A33
:10066C0011F4DEDE52C00E94B90932960E94A10A32
:10067C0011F4D6DE4AC00E94B90933960E94A10A31
:10068C0011F4CEDE42C00E94B90931970E94A10A32
:10069C0011F4C6DE3AC00E94B90932970E94A10A31
:1006AC0011F4BEDE32C00E94B90933970E94A10A30
:1006BC0011F4B6DE2AC00E94B4090E94A80A21F1E6
:1006CC000E94B40931960E94A80AF1F00E94B40964
:1006DC0032960E94A80AC1F00E94B40933960E9477
:1006EC00A80A91F00E94B40931970E94A80A61F0FF
:1006FC000E94B40932970E94A80A31F00E94B409F2
:10070C0033970E94A80A09F414DF08950E94EB099C
:10071C0011F0E1E0AE2A0E94610A11F0E2E0AE2A8B
:10072C000E94690A11F0E4E0AE2A0E94710A11F0ED
:10073C00E8E0AE2A0E94790A11F0E0E1AE2A0E94AC
:10074C00810A11F0E0E2AE2A0E94890A11F0E0E47D
:10075C00AE2A0E94910A11F0E0E8AE2AE091630003
:10076C00E17011F0E1E0BE2AE0916300E27011F05B
:10077C00E2E0BE2A0E94990A11F0E4E0BE2A0E942F
:10078C00540A11F0E8E0BE2A0E944C0A11F0E0E194
:10079C00BE2A0E94440A11F0E0E2BE2A0E943C0AE2
:1007AC0011F0E0E4BE2A0E94340A11F0E0E8BE2AFF
:1007BC000E942C0A11F0E0E0AE2A0E94200A11F0EF
:1007CC00E0E0AE2AE0916300E47011F0E0E0AE2AC4
:1007DC000E94180A11F0E0E0AE2A0E94100A11F0F3
:1007EC00E0E0AE2A0E94080A11F0E0E0AE2A0E9476
:1007FC00000A11F0E0E0AE2A0E94F30911F0E0E0EB
:10080C00AE2A0895A6E0E5DC9E2E0E94540A21F43F
:10081C000E944C0A09F44DC079DFE0E0F8E1EA15DA
:10082C00FB0551F0E0E0F0E1EA15FB0529F0E0E012
:10083C00F8E0EA15FB05F9F402DF0E94540A19F0FE
:10084C000E944C0A09F405C00E94280A9A92A92D0C
:10085C0010C00E94540A29F00E94280A0E94AF0A74
:10086C0008C00E944C0A31F00E94280A9A92A92DC5
:10087C00AC5EF1DC1DC00E94540A19F00E944C0AB7
:10088C0009F405C00E94280A9A92A92D10C00E9452
:10089C00540A29F00E94280A0E94AF0A08C00E943C
:1008AC004C0A31F00E94280A9A92A92DAC5ED3DC36
:1008BC00C9C00E94990A39F00E94280AE92DE85D06
:1008CC00EA93A92DBEC00E94440A31F00E94280A66
:1008DC009A92A92DA85DB5C0E0916300E27029F051
:1008EC000E94280A0E94B40AACC00E943C0A31F053
:1008FC000E94280A9A92A92DA45CA3C0E0916300DF
:10090C00E17029F00E94280A0E94B90A9AC00E943C
:10091C00340A31F00E94280A9A92A92DA05B91C04A
:10092C000E94910A39F00E94280AE92DEC59EA93A9
:10093C00A92D87C00E942C0A31F00E94280A9A9295
:10094C00A92DAC597EC00E94890A31F00E94280A58
:10095C00E6E9EA93A0E075C00E94200A31F00E94FB
:10096C00280AE0E0EA93A6E96CC00E94810A31F003
:10097C000E94280AEAEFEA93A0E063C0E0916300CA
:10098C00E47031F00E94280AE0E0EA93AAEF59C023
:10099C000E94790A31F00E945C0AE8ECEA93A4E622
:1009AC0050C00E94180A31F00E94FB09EEEBEA934A
:1009BC00A8EC47C00E94710A31F00E945C0AEEEB71
:1009CC00EA93AEEB3EC00E94100A31F00E94FB0984
:1009DC00EEEBEA93AEEB35C00E94690A31F00E944F
:1009EC005C0AEEEBEA93AFEF2CC00E94080A31F0E0
:1009FC000E94FB09EFEFEA93AEEB23C00E94610A61
:100A0C0031F00E945C0AE4E6EA93AFEF1AC00E9450
:100A1C00000A31F00E94FB09EFEFEA93A4E611C043
:100A2C000E94EB0931F00E945C0AE2E3EA93AFEF1B
:100A3C0008C00E94F30931F00E94FB09EFEFEA9322
:100A4C00A2E309DC0895A6E0C4DB9E2EE0914705E5
:100A5C00F0914805309709F055C00E94540A19F0DE
:100A6C000E944C0A09F405C00E94280A9A92A92DEA
:100A7C0044C00E94540A29F00E94280A0E94AF0A1E
:100A8C003CC00E944C0A31F00E94280A9A92A92D6F
:100A9C00AC5E33C00E94990A39F00E94280AE92DF5
:100AAC00E85DEA93A92D29C00E94440A31F00E9406
:100ABC00280A9A92A92DA85D20C020FC0AC0E091BA
:100ACC006300E27029F00E94280A0E94B40AC3DB7A
:100ADC0015C020FE0AC0E0916300E07029F00E946E
:100AEC00280A0E94B40AB7DB09C00E943C0A31F004
:100AFC000E94280A9A92A92DA45CADDBE1E0F0E0FB
:100B0C000E94BE0A0E94C30A119709F048C020FC3B
:100B1C0042C0E0916300E17029F00E94280A0E9413
:100B2C00B90A38C020FE37C0E0916300E07029F0AC
:100B3C000E94280A0E94B90A2DC00E94340A31F082
:100B4C000E94280A9A92A92DA05B24C00E94910AA7
:100B5C0039F00E94280AE92DEC59EA93A92D1AC004
:100B6C000E942C0A31F00E94280A9A92A92DAC59A5
:100B7C0011C00E94890A31F00E94280AE6E9EA9322
:100B8C00A0E008C00E94200A31F00E94280AE0E090
:100B9C00EA93A6E960DBE2E0F0E00E94BE0A0E9464
:100BAC00C30A129709F04BC00E94810A31F00E94CF
:100BBC00280AEAEFEA93A0E03DC020FC0BC0E091CC
:100BCC006300E47031F00E94280AE0E0EA93AAEF97
:100BDC0042DB31C020FE0BC0E0916300E07031F0CD
:100BEC000E94280AE0E0EA93AAEF35DB24C00E94B9
:100BFC00790A31F00E945C0AE8ECEA93A4E61AC088
:100C0C000E94180A31F00E94FB09EEEBEA93A8EC63
:100C1C0011C00E94710A21F0E0E0EA93E1E006C005
:100C2C000E94100A41F0E1E0EA93E0E0EA93EEEB77
:100C3C00EA93AEEB10DBE3E0F0E00E94BE0A0E9408
:100C4C00C30A1397D9F50E94690A31F00E945C0A15
:100C5C00EEEBEA93AFEF2CC00E94080A31F00E9431
:100C6C00FB09EFEFEA93AEEB23C00E94610A31F06F
:100C7C000E945C0AE4E6EA93AFEF1AC00E94000AF5
:100C8C0031F00E94FB09EFEFEA93A4E611C00E9439
:100C9C00EB0931F00E945C0AE2E3EA93AFEF08C083
:100CAC000E94F30931F00E94FB09EFEFEA93A2E3F3
:100CBC00D2DAE0E0E0934705E09348050895E7E0D9
:100CCC00EABBE0E0EBBBEFE7E7BBE0E0E8BBE4BB93
:100CDC00E5BBE1BBE2BBE1ECE2B9EEE7E3B9E7E986
:100CEC00E0936100E0E0E0936200E0936400E09345
:100CFC006500E0BFE6E0E3BFE0E0E2BFE1BFEFBDCF
:100D0C00EEBDEDBDECBDE7BDE6BDEBBDEABDE9BD9D
:100D1C00E8BDE0937900E0937800E4E0E5BDE0E025
:100D2C00E4BDE3BDE0938B00E0938A00E09389007F
:100D3C00E0938800E0938100E0938000E0938700CB
:100D4C00E0938600E0938500E0938400E0938300B9
:100D5C00E0938200E1E4E7BFE0E0E0937D00E09304
:100D6C006A00EABFE9BFEAB9E0939A00E0E8E8B9A3
:100D7C00E0E4E7B9E4E8E6B9E0E0E0BDEDB9E09322
:100D8C007400A8E00E941E0978940B9904C00E947C
:100D9C00C80A59DEFECF0A9928C0A1E039DA0E94B0
:100DAC00E608E0E0EA93A0E00E94D708A0E0B5E0F6
:100DBC000E940D09E0E0EA93A1E00E94D708AAE0A6
:100DCC00B5E00E940D090B9905C051DA0E94C80AC2
:100DDC000E94CD0A0A9905C077DA0E94C80A0E94BF
:100DEC00CD0A099902C00EDDFECFCFCFFFCFBA934B
:100DFC00AA931A930A93AA81BB8112960E94460B5E
:100E0C00309759F1AA81BB8114960E94460B8F0131
:100E1C00309761F00230E0E01E0798F0F80131974E
:100E2C008F01AA81BB811496ED93FC93AA81BB819F
:100E3C001296ED91FD913196FE93EE933197AC8124
:100E4C00A083AA81BB810E94460BFF232AF0ED915F
:100E5C00FD913196FE93EE9306C0AA81BB81EFEF14
:100E6C00FFEFED93FC931981088125960895BA93B1
:100E7C00AA9326970E94580B10E0AC85BD85E0E044
:100E8C00F0E0ED93FC93EA89FB893196EA8BFB8BBE
:100E9C003197E4912E2FE03009F415C1E12FE030A9
:100EAC0039F4253211F411E002C00E94D40A0AC1AF
:100EBC00E130A9F4253219F40E94D40A02C112E0DF
:100ECC0040E000E02D3211F401E0FCC02B3211F4B3
:100EDC004BE2F8C0203211F440E2F4C002C0E23020
:100EEC0039F450E013E0203311F40068EBC003C078
:100EFC00E33009F0E7C0203310F02A3308F007C0C4
:100F0C00AAE05A9F502DE22FE0535E0FDBC0E22F78
:100F1C00E33649F40E94DB0AE889F989A481AA9393
:100F2C000E94E10ACEC0E33741F40E94DB0A0E9422
:100F3C00E70A0E944E091E2F0AC0E03761F40E9496
:100F4C00DB0A0E94E70A0E945A091E2F0860026001
:100F5C000F7730E034C0E43611F0E93611F4046058
:100F6C0002C0E53731F4ECE8F0E0EE83FF8315E0E6
:100F7C000CC0E83511F4086003C0E83709F0A1C0D3
:100F8C00E6E9F0E0EE83FF8314E002FF14C00E9458
:100F9C00DB0A0E94F10AAB85AA233AF4EA85FB85A9
:100FAC000E941C0BEA87FB874DE2403011F01F5F5B
:100FBC0001C00B7F04C00E94DB0A0E94F10A00FDF5
:100FCC0011C0151778F407FF08C002FF04C00B7F8F
:100FDC00242F115001C020E301C020E20E94D40A4A
:100FEC005150EFCF312F01FF17C03030A1F003FF6C
:100FFC0006C0EE81FF812591EE83FF8305C0AE8193
:10100C00BF812D91AE83BF830E94D40A503009F06A
:10101C0051503150EACF4BC020E3EE81FF810E944A
:10102C004A0BE887F987EE81FF813296EE83FF83C6
:10103C00E885F985AA85BB85AE17BF0750F02F5FF1
:10104C00A885B985EA85FB85EA1BFB0BEA87FB873C
:10105C00EFCF2A3328F003FF02C0295F01C0295DBE
:10106C0004FD1AC0213320F4A885B985119709F421
:10107C0009C0531710F000FF01C013C020E207FF96
:10108C000BC020E3006102FF07C00B7F4A930E9454
:10109C00E10A503009F051500E94D40A503009F046
:1010AC0051503150A885B985129708F0B5CF00FF83
:1010BC0008C0503031F05150E0E2EA930E94E10A4E
:1010CC00F8CF10E0E0CEAC85BD850E94460B0E94A7
:1010DC005F0B64960895FF92F82E26970E945A0B88
:1010EC000E94F90A309719F4EFEFFFEF23C0DE01ED
:1010FC0016960E94180B8D010E94F90AEE83FF834D
:10110C00E0E0E887E987DE011A960E94180B0E943E
:10111C00460BFA93EA931A930A93EDEFF6E0FA93DF
:10112C00EA93DE011A96A3DE9F01AE81BF81E0E057
:10113C00EC93F9010E94610B2A96FF900895AA93F3
:10114C00E881E07111F0C39A01C0C398E881E072A4
:10115C0011F0C29A01C0C298E881E07411F0C19AF2
:10116C0001C0C198E881E07811F01F9A01C01F9866
:10117C008BE18A95F1F7C49A8BE18A95F1F7C498C3
:10118C008BE18A95F1F782C0AA93A881D8DFE88118
:10119C00E295E883A881D3DF88EC90E00197F1F722
:1011AC0075C0AA93E881F0E0E35BFA4FE081A98176
:1011BC00AE0FEADF8980E881E0935105229608950D
:1011CC00A2E00E94000BACE0DFDFA1E00E94000B6C
:1011DC00E0E0E09351058E2E0895AA93A881AA30E1
:1011EC0021F0E09152058E1660F0E0E0EA93A091B8
:1011FC005105AF5FA0935105D4DFA881AA3009F443
:10120C0045C08394C69AA881BFDFC6983FC0BA93E5
:10121C00AA931A93A981BA81ED91A983BA831E2F3F
:10122C00E03019F0A12FD9DFF5CF1881239608955E
:10123C00AA93BB9ABA9AB99A179ABC9ABE9ABD9AB3
:10124C00C498C698C598E881E0935205E058E0939D
:10125C004F05E881E054E0935005A4E1B0E00E9412
:10126C000E0B0E94060B0E94060B0E94060BA0E2BE
:10127C0066DF80E991E00197F1F7A8E285DFA4E051
:10128C0083DFA5E881DFA6E07FDF9ADF2196089552
:10129C00BA93AA93A991B991EE27FF276D91662372
:1012AC0011F03196FBCF0895BA93AA93AA27BB27C6
:1012BC00E991F9910590002011F01196FBCFFD01F9
:1012CC0008950E945A0BE0E0F0E09F018F01089511
:1012DC001898E0E0E0932205E09323050895A0918F
:1012EC002205B091230512970895A2E2B5E0ED9185
:1012FC00FD913196FE93EE930895189AE0E0E093F9
:10130C002405E09325050895A0912405B0912505A9
:10131C0012970895A4E2B5E0ED91FD913196FE93FC
:10132C00EE9308951898D901E2E0F0E00E94330B97
:10133C009F01D801E2E0F0E00E94330B8F01E21B29
:10134C00F30B08950E94E608E0E0EA93A0E00E9407
:10135C00D708E6E2F5E0FA93EA930895E0912005C8
:10136C00F09121050895E0911E05F0911F05089557
:10137C00E0931605F09317050895E0931805F09384
:10138C0019050895E0931405F09315050895A0919F
:10139C001605B09117050895A0911805B09119057F
:1013AC000895E2E0F0E00E94330B0895A1E00E9462
:1013BC001F01E0E0EA93EA93E6E9EA93A6E90E94CA
:1013CC003101A4E6B0E00C940E0BA0E08099A1E0F2
:1013DC00E0E020FCE1E0EA270895A0E0CD99A1E04F
:1013EC00E0E020FCE1E0EA270895E1E0EA93E0E0A8
:1013FC00EA930895A0E0CC99A1E0E0E020FCE1E0C4
:10140C00EA270895A0E0CB99A1E0E0E020FCE1E020
:10141C00EA270895A0E0CE99A1E0E0E020FCE1E00D
:10142C00EA270895A0E0CF99A1E0E0E020FCE1E0FC
:10143C00EA270895A0E09F99A1E0E0E020FCE1E01C
:10144C00EA270895E0E0EA93EA930895A0E09E99D4
:10145C00A1E0E0E020FCE1E0EA270895A0E09D99FE
:10146C00A1E0E0E020FCE1E0EA270895A0E09C99EF
:10147C00A1E0E0E020FCE1E0EA270895A0E09B99E0
:10148C00A1E0E0E020FCE1E0EA270895A0E09A99D1
:10149C00A1E0E0E020FCE1E0EA270895A0E09999C2
:1014AC00A1E0E0E020FCE1E0EA270895E0E0EA9327
:1014BC00E1E0EA930895A0E08199A1E0E0E020FC4E
:1014CC00E1E0EA270895A0E08299A1E0E0E020FCA9
:1014DC00E1E0EA270895A0E08399A1E0E0E020FC98
:1014EC00E1E0EA270895A0E08499A1E0E0E020FC87
:1014FC00E1E0EA270895A0E08599A1E0E0E020FC76
:10150C00E1E0EA270895A0E08699A1E0E0E020FC64
:10151C00E1E0EA270895A0E08799A1E0E0E020FC53
:10152C00E1E0EA270895A0E09899A1E0E0E020FC32
:10153C00E1E0EA270895A0911A05B0911B05EA177E
:10154C00FB070895A0911C05B0911D05EA17FB0738
:10155C000895E92DEC5EEA93A92D0895E92DE45C3C
:10156C00EA93A92D0895E92DE05BEA93A92D08953E
:10157C00E0934705F09348050895A0914705B09175
:10158C00480508950E94E608A1E00C94FD00A4E62D
:10159C00B0E00E940E0BA0E00C94FD002A93AD85E8
:1015AC00BE85EF85F88909950895E889F9893497FE
:1015BC00E88BF98B0895AD85BE85EF85F889099583
:1015CC000895A889B98914960E94460BEE83FF836F
:1015DC00AE81BF810895A889B98914960E94460BE3
:1015EC00EA87FB870895DE011C960E94180B0E9467
:1015FC00460B08950E94CA08A3E0B0E00C940E0BB1
:10160C00A0E30E94A50880E991E00197F1F7089505
:10161C00109639F080EA9FE00197F1F7A8951197A1
:10162C00C9F708950024AF0DB01D0895F195E1950B
:10163C00F04008950024112490E1AA0FBB1F001C58
:10164C00111C0E1A1F0A18F40E0E1F1E01C0A160E9
:10165C009A9599F7FD01D001089504D0EBDF0EF4B3
:10166C00E5DF0895E894F7FF02C0E0DF6894B7FF68
:10167C0006C0A095B095119600F8039400FA089551
:10168C00ED91FC91119708950590F491E02D08953A
:10169C007A936A93FA93EA930895E894EE2309F007
:1016AC00689408955A934A933A932A931A930A93F7
:1016BC0008955D814C813B812A81198108810895AF
:00000001FF
