:0A0000000C9433010C9400000C94E2
:10000A0000000C9400000C9400000C9400000C9466
:10001A0085010C9400000C9400000C9400000C94D0
:10002A0025020C9400000C9400000C9400000C941F
:10003A00D4010C9400000C9409020C9400000C9456
:10004A0000000C9400000C9400000C9400000C9426
:10005A0000000C9400000C9400000C9400000C9416
:10006A0000000C9400000C9400000C9400000C9406
:10007A0000000C9400000C9400000C9400000C94F6
:10008A0000001027E80364000A00010000100001C4
:10009A001000010000000000020064002D2D003154
:1000AA003200313300313100313400313000313522
:1000BA00003039003136003038003137003037002F
:1000CA0031380030360031390030350032300030F6
:1000DA0034003231003033003232003032003233F1
:1000EA00003031003234004C696E6520466F6C6C0A
:1000FA006F7765003C303E0073706565643A202B6B
:10010A00002500436F6C6F722053656E736F720027
:10011A007365743D00556C747261536F6E69630048
:10012A00636D00207365743D357E31360048454C59
:10013A00503A202020206F20206F20206F2000734B
:10014A0077697463687320205E20205E20205E2019
:10015A0000202020202020202020202020202020B5
:10016A0020002020202020202020202B20206F204B
:10017A00206F2000203C2D202020204261636B202C
:10018A002020202020002020202020202020206F36
:10019A0020202B20206F200020202020202020201B
:1001AA002020202020202020200020202D20202058
:1001BA00205365742020202D20202000202020207C
:1001CA0020202020206F20206F20202B200020209C
:1001DA0020202053746172742020202D3E2000209C
:1001EA00202057656C636F6D652021202020200038
:1001FA0043686F6F73653A20203120203220203304
:10020A0000313A204C696E6520466F6C6C6F77003E
:10021A00323A202B436F6C6F7200333A202B4F62B5
:10022A00737461636C65000001002D4E414E0049F4
:10023A004E46000080C0010002009E000100080036
:10024A00A00001000505A20001000805A4000100A4
:10025A0015053202020019053E020000F894EE2745
:10026A00ECBBF1E0F5BFE5BFE0936C008DE0A2E0E6
:10027A00BB27ED938A95E9F780E090E1A0E0B1E031
:10028A00ED930197E9F7E0E4F2E085919591009703
:10029A0061F0A591B59105901590BF01F001059007
:1002AA000D920197E1F7FB01F0CFEFEFEDBFE0E12F
:1002BA00EEBFC0E0D5E00C941405AA93A881A13042
:1002CA0021F4E0916200E46006C0E881E03029F49C
:1002DA00E0916200EB7FE093620010C0AA93A881CC
:1002EA00A13021F4E0916200E26006C0E881E030CA
:1002FA0029F4E0916200ED7FE0936200219608956F
:10030A000A921A92FA926A937A938A939A93AA937E
:10031A00BA93EA93FA93EFB7EA930D9B10C00E943F
:10032A003807E0E0E0930A05E0930B050E944207D4
:10033A00E3E0E0930505A1E0D1DFA0E021C00D993B
:10034A0020C0E0910E05F0910F05A4E5B1E00E94EE
:10035A009808DF01E0EDF7E00E94A008A0E1B5E00F
:10036A00662777270E945D080E94B308E2E0E093BF
:10037A0005050E9438070E944207A0E0AFDFA1E00E
:10038A009CDFE991EFBFF991E991B991A99199910E
:10039A00899179916991F990199009901895AA9380
:1003AA00BA93EA93FA93EFB7EA930E944207AEE050
:1003BA00B5E0ED91FD913196FE93EE93A0910E0575
:1003CA00B0910F05A43FE1E0BE0761F4E0E0E093DD
:1003DA000E05E0930F05ACE0B5E0ED91FD91319685
:1003EA00FE93EE93A0910C05B0910D05D29729F4D6
:1003FA00E0E0E0930C05E0930D05E991EFBFF99178
:10040A00E991B991A9911895EA93EFB7EA9325FE74
:10041A000FC0EFEFE719E2BFE89425F822FC03C00A
:10042A00D99ADA9804C022FE02C0D998DA9A07C08B
:10043A0025FC05C072BE689425F8D998DA9825C0BB
:10044A00EA93EFB7EA9326FE15C0EFEFE619E4BD8B
:10045A00E89426F823FC05C0D898E0916200E06889
:10046A0006C023FE06C0D89AE0916200EF77E093B7
:10047A0062000BC026FC09C064BC689426F8D898B0
:10048A00E0916200EF77E0936200E991EFBFE991B2
:10049A001895AA93E881E066E7B985E38A95F1F7AA
:1004AA00369A349BFECF349AE5B10C943607AA9358
:1004BA00EB810E94B80823F8EA810E94B80822F862
:1004CA006980788024960895E89420F80E94470766
:1004DA0019F00E944F0709F40AC00E9457079A921E
:1004EA000E945B07A6EAB0E00E94F506CDC10E9411
:1004FA00470761F00E945707E92DEC5EEA930E94D4
:10050A005B07A9EAB0E00E94F506BEC10E944F0748
:10051A0061F00E9457079A92A92DAC5E0E94630768
:10052A00ACEAB0E00E94F506AFC1A0E09899A1E05C
:10053A000E946A0761F00E945707E92DE85DEA9375
:10054A000E945B07AFEAB0E00E94F5069DC1A0E0F9
:10055A009B99A1E00E946A0761F00E9457079A924C
:10056A00A92DA85D0E946307A2EBB0E00E94F506E0
:10057A008BC120FC89C1E0916300E27061F00E94A6
:10058A005707E92DE45CEA930E945B07A5EBB0E00C
:10059A000E94F50679C120FE77C1E0916300E07000
:1005AA0041F00E945707E92DE45CEA93A92D7FDF09
:1005BA006BC1A0E09C99A1E00E946A0761F00E94C9
:1005CA0057079A92A92DA45C0E946307A8EBB0E092
:1005DA000E94F50659C120FC10C0E0916300E17049
:1005EA0059F00E945707E92DE05BEA930E945B07E6
:1005FA00ABEBB0E00E94F50647C120FE0CC0E091CB
:10060A006300E07039F00E945707E92DE05BEA9336
:10061A00A92D4DDF39C1A0E09D99A1E00E946A078A
:10062A0061F00E9457079A92A92DA05B0E94630766
:10063A00AEEBB0E00E94F50627C1A0E08799A1E0E1
:10064A000E946A0761F00E945707E92DEC59EA9364
:10065A000E945B07A1ECB0E00E94F50615C1A0E07C
:10066A009E99A1E00E946A0761F00E9457079A9238
:10067A00A92DAC590E946307A4ECB0E00E94F506CC
:10068A0003C1A0E08699A1E00E946A0761F00E9476
:10069A005707E6E9EA93A0E00E946307A7ECB0E0F7
:1006AA000E94F506F1C0A0E09F99A1E00E946A07A6
:1006BA0061F00E945707E0E0EA93A6E90E94630707
:1006CA00AAECB0E00E94F506DFC0A0E08599A1E09F
:1006DA000E946A0769F00E946F07ADECB0E00E94C1
:1006EA00F5060E945707EAEFEA93A0E0E0DECCC0E5
:1006FA0020FC11C0E0916300E47061F00E946F0772
:10070A00A0EDB0E00E94F5060E945707E0E0EA93E8
:10071A00AAEFCDDEB9C020FE0BC0E0916300E07005
:10072A0031F00E945707E0E0EA93AAEFC0DEACC0BE
:10073A00A0E08499A1E00E946A0761F00E94740710
:10074A00E8ECEA93A4E60E946307A3EDB0E00E94F6
:10075A00F5069AC0A0E0CF99A1E00E946A0751F07D
:10076A000E947907A8EC0E946307A6EDB0E00E94F8
:10077A00F5068AC0A0E08399A1E00E946A0761F0A9
:10078A000E947407EEEBEA93AEEB0E946307A9EDB1
:10079A00B0E00E94F50678C0A0E0CE99A1E00E94E0
:1007AA006A0751F00E947907AEEB0E946307ACED2D
:1007BA00B0E00E94F50668C0A0E08299A1E00E941C
:1007CA006A0751F00E947407EEEB0E948007AFEDB2
:1007DA00B0E00E94F50658C0A0E0CB99A1E00E94C3
:1007EA006A0751F00E948307AEEB0E946307A2EEEC
:1007FA00B0E00E94F50648C0A0E08199A1E00E94FD
:10080A006A0751F00E947407E4E60E948007A5EE89
:10081A00B0E00E94F50638C0A0E0CC99A1E00E94A1
:10082A006A0751F00E948307A4E60E946307A8EEB4
:10083A00B0E00E94F50628C0A0E08099A1E00E94DD
:10084A006A0751F00E947407E2E30E948007ABEE48
:10085A00B0E00E94F50618C0A0E0CD99A1E00E9480
:10086A006A0751F00E948307A2E30E946307AEEE73
:10087A00B0E00E94F50608C00E945707E0E0EA933C
:10088A00A0E015DE0E94B80608950B9904C0099BE2
:10089A0002C00A9901C035C00E948A0721FE31C0F0
:1008AA000B9B04C0099B02C00A9B01C004C00E94A2
:1008BA00B8060ADEFECFA6E0ECDD9E2E0E946F0788
:1008CA00A1EFB0E00E949007A2E0B1E00E94A00769
:1008DA00ADE00E94A507ABE0B1E00E94F506E9E0B1
:1008EA00E91519F0E3E6E91511F40E94B8060B9927
:1008FA0004C0099B02C00A9901C002C0E89421F809
:10090A00CDCF0B9B04C0099902C00A9901C023C02C
:10091A000E948A0721FE1FC00E946F07ADE0B1E066
:10092A000E949007AAE1B1E00E94A007AEE00E94EF
:10093A00A507E9E0E91519F0E3E6E91511F40E94C3
:10094A00B8060B9904C0099B02C00A9901C002C0EB
:10095A00E89421F8DFCF0B9B04C0099B02C00A9BD5
:10096A0001C05CC00E948A0721FE58C00E946F071E
:10097A00AFE1B1E00E949007ADE1B1E00E94F50657
:10098A001E9A8BE68A95F1F71E988BE68A95F1F7FF
:10099A00E2E00E94B307E0911005F0911105609121
:1009AA001205709113050E942608FA93EA93A0E0B3
:1009BA00B5E00E944706A0E0B5E00E94E606AAE27A
:1009CA00B1E00E94F506E6E00E94B307ADE2B1E0AD
:1009DA000E94F5060E94B707A030E0E0BE07E0E1FA
:1009EA008E07E1E49E0751F00E94B707A030E0E0CD
:1009FA00BE07E6EC8E07E2E49E0711F40E94B806F1
:100A0A00E1E0E093060560DD0B9904C0099B02C092
:100A1A000A9901C002C0E89421F8A6CF0895E7E038
:100A2A00EABBE0E0EBBBEFE7E7BBE0E0E8BBE4BB37
:100A3A00E5BBE1BBE2BBE1ECE2B9EEE7E3B9E7E92A
:100A4A00E0936100E0E0E0936200E0936400E093E9
:100A5A006500E0BFE6E0E3BFE0E0E2BFE1BFEFBD73
:100A6A00E1E0EEBD0E944207E0E0E7BDE6BDEBBD76
:100A7A00EABDE9BDE8BDE0937900E0937800E4E0DF
:100A8A00E5BDE0E0E4BDE3BDE0938B00E0938A00BE
:100A9A00E0938900E0938800E0938100E09380006E
:100AAA00E0938700E0938600E0938500E09384005A
:100ABA00E0938300E0938200E5E4E7BFE0E0E0939F
:100ACA007D00E0936A00E4E0EABFE0E2E9BFE8BF44
:100ADA00E0E0EAB9E0939A00E0E8E8B9E0E6E7B9CD
:100AEA00E4E8E6B9E0E0E0BDEDB9E0937400A0E126
:100AFA000E9408077894EAE0E09308050E946F07CD
:100B0A00A7E3B1E00E94A007A1E00E94A706A9E41A
:100B1A00B1E00E94C007E0E00E94B307ABE5B1E094
:100B2A000E94F506ACE2B1E00E94FF070E946F073F
:100B3A00ACE6B1E00E94F506A4E60E94C607AEE75D
:100B4A00B1E00E94C0070E946F07A0E9B1E00E94CD
:100B5A00A007A1E00E94A706A2EAB1E00E94F5065A
:100B6A00AAE50E94C607A4EBB1E00E94C0070E9452
:100B7A006F07A6ECB1E00E94A007A1E00E94A706B9
:100B8A00ABE5B1E00E94F506AAE50E94C607A8ED0A
:100B9A00B1E00E94C0070E946F07A9EEB1E00E946F
:100BAA00A007A1E00E94A706A0910805BB270E9402
:100BBA00FF07E0E0E093080568DEE8E0E093080557
:100BCA00A0910805A130D0F00E94CB070E94CE0761
:100BDA00ABE0B2E00E94D50761F4E0E0E0930905DA
:100BEA00A0910905A33328F40E94DF070E94E507B4
:100BFA00F7CF0E94B8060E94EB07E2CFE8E0E09345
:100C0A000805A0910805A130D0F00E94CB070E94E8
:100C1A00CE07AAE1B2E00E94D50761F4E0E0E093D2
:100C2A000905A0910905A33328F40E94DF070E9451
:100C3A00E507F7CF0E94B8060E94EB07E2CFE8E08B
:100C4A00E0930805A0910805A130D0F00E94CB07D7
:100C5A000E94CE07A4E2B2E00E94D50761F4E0E068
:100C6A00E0930905A0910905A33328F40E94DF0740
:100C7A000E94E507F7CF0E94B8060E94EB07E2CF71
:100C8A009BCFFFCFBA93AA93A991B991E991F99110
:100C9A0030962AF4E095F09531966DE26D93E894DA
:100CAA0080E197E20DD088EE93E00AD084E6992796
:100CBA0007D08AE005D06E2F10D066276C9308956E
:100CCA006627E817F90720F06395E81BF90BC9F7BF
:100CDA00662311F416F008956894605D6D93089583
:100CEA00AA93E881E07111F0C39A01C0C398E88120
:100CFA00E07211F0C29A01C0C298E881E07411F062
:100D0A00C19A01C0C198E881E07811F01F9A01C028
:100D1A001F988BE18A95F1F7C49A8BE18A95F1F7CE
:100D2A00C4988BE18A95F1F79CC0AA93A881D8DF71
:100D3A00E881E295E883A881D3DF88EC90E0019707
:100D4A00F1F78FC0AA93E881F0E0E75EFA4FE081FD
:100D5A00A981AE0FEADFE981E0931D05E881E093FE
:100D6A001E0522960895A2E00E94F107ACE0DDDF9D
:100D7A00A1E00E94F107E0E0E0931E05E0931D0563
:100D8A000895AA93A881AA3031F0E0911F05A09195
:100D9A001D05AE1760F0E0E0EA93A0911E05AF5F73
:100DAA00A0931E05CFDFA881AA3009F45AC0E091AA
:100DBA001D05EF5FE0931D05C69AA881B6DFC698A8
:100DCA0050C0BA93AA931A93A981BA81ED91A983C3
:100DDA00BA831E2FE03019F0A12FD3DFF5CF10C050
:100DEA00BA93AA931A93E981FA813196E983FA832D
:100DFA003197E4911E2FE03019F0A12FC2DFF3CF13
:100E0A00188123960895AA93BB9ABA9AB99A179AFF
:100E1A00BC9ABE9ABD9AC498C698C598E881E093D0
:100E2A001F05E058E0931B05E881E054E0931C0598
:100E3A00A4E1B0E00E94FF070E94F7070E94F707AB
:100E4A000E94F707A0E24CDF80E991E00197F1F7F1
:100E5A00A8E26BDFA4E069DFA5E867DFA6E065DF4B
:100E6A0082DF21960895E0E0E0930E05E0930F05F6
:100E7A00E0930C05E0930D050895EFEFEDBDE0E674
:100E8A00ECBD0895A0E09999A1E0E0E020FCE1E042
:100E9A00EA270895A0E09A99A1E0E0E020FCE1E0C9
:100EAA00EA270895E0E0EA93EA930895A92D0E94BB
:100EBA005C02E0E0EA93A0E00C94A7060E945C02C0
:100ECA00E0E0EA93A0E00C94A706E0E020FCE1E071
:100EDA00EA270895E0E0EA93A0E00C94A706E0E090
:100EEA00EA93E1E0EA930895E1E0EA93E0E0EA9325
:100EFA00EEEBEA930895EA93AFEFE0CFE1E0EA93ED
:100F0A00E0E0EA93EFEFEA930895689421F8A4E108
:100F1A00B0E00C94FF070E94F506EDE0EA93A0E02A
:100F2A000E94A706AEEFB0E00E94F506E0E0EA9361
:100F3A00A1E00C94A7060E94F506E0E0EA93089562
:100F4A000E94A706E92DF0E0FA93EA93A0E0B5E043
:100F5A000E944706A0E0B5E00C94E606EA93A1E0F9
:100F6A000C94A706A0911005B09111058091120565
:100F7A009091130508950E94F506A8EEB3E00C942B
:100F8A00FF07B0E00E94FF07E0E0E8CF0E944A04B2
:100F9A00A1CFAAEFB1E00E94F506E0910805DECFE5
:100FAA000E94F506AFE0B0E00E94FF07A091080595
:100FBA00A13008950E944A04A4E1B0E00C94FF070E
:100FCA00E0910905EF5FE09309050895E0910805AE
:100FDA00E150E093080508950E949A06A3E0B0E064
:100FEA000C94FF07A0E30E94750680E991E001973F
:100FFA00F1F70895109639F080EA9FE00197F1F72A
:10100A00A8951197C9F7089550E8572711F45F93E7
:10101A006BC05F3F31F0660F000C57956795752FCF
:10102A0008955F9300200AF06BC064C050E8072E51
:10103A000522660F771F7527550F679508956894DF
:10104A0001C0E8945F93F2DF703818F07F3F08F42C
:10105A004BC056E1571BAAF4519558300EF459303B
:10106A0030F0EFEFFFEF6FEF7FE777F91AC07727DE
:10107A005523B9F0EE0FFF1F661F771F5A95D1F758
:10108A0010C07727583028F0EF2FF62F672F5850C7
:10109A00F9CF552331F076956795F795E7955A95E7
:1010AA00D1F700200AF432D05F910895689401C004
:1010BA00E894309760407040B1F0002426F077231E
:1010CA0012F4009423D0172E7EE1112032F07A9583
:1010DA00EE0FFF1F661F111CF9CFEF2FF62F612DA0
:1010EA005F9392DF5F910895EE27FF2766277727A0
:1010FA005F910895EFEFFFEF6FE77FEF5F9108953C
:10110A00EFEFFFEF6FE77FE75F910895F095609546
:10111A007095E195FF4F6F4F7F4F08956F2F660FC0
:10112A00660B762F0895FA9FF02DEB9FF00DEA9F3C
:10113A00E02DF10D08950024112490E1AA0FBB1FA0
:10114A00001C111C0E1A1F0A18F40E0E1F1E01C0D5
:10115A00A1609A9599F7FD01D0010895ED93FD9349
:10116A006D937C930895E894EE2309F068940895AA
:00000001FF
